:100000000C9475000C940F010C9492000C949200C7
:100010000C9492000C9492000C9492000C94920018
:100020000C9492000C9492000C9492000C94920008
:100030000C9492000C9492000C9492000C949200F8
:100040000C9483050C9492000C9492000C949200F2
:100050000C9492000C9451010C9492000C94920018
:100060000C9492000C94920007634236B79BD8A779
:100070001A39685618AEBAAB558C1D3CB7CC5763CD
:10008000BD6DEDFD753EF6177231BF000000803F7B
:1000900008000000BE922449123EABAAAA2ABECD97
:1000A000CCCC4C3E00000080BEABAAAAAA3E000009
:1000B0000000BF000000803F000000000008417801
:1000C000D3BB4387D1133D190E3CC3BD4282AD2B38
:1000D0003E68EC8276BED98FE1A93E4C80EFFFBE30
:1000E00001C4FF7F3F000000000011241FBECFEFBE
:1000F000D8E0DEBFCDBF12E0A0E0B1E0EAE4FBE172
:1001000002C005900D92AE34B107D9F722E0AEE4FB
:10011000B2E001C01D92AD37B207E1F70E946E0355
:100120000C94A30D0C940000F999FECF81BD60BD25
:10013000FA9AF99A0895F999FECF81BDF89A80B597
:100140000895CF93DF93D82FDD0F8D2F0E949B0052
:10015000C82F81E08D0F0E949B002C2F30E0322FA2
:100160002227A901480F511DCA01DF91CF9108959F
:100170000F931F93CF938B01C82FCC0F31E020E05A
:10018000672B09F030E0832F922F30935002209399
:10019000510231E020E0C11130E0432F522F309363
:1001A0004E0220934F020817190729F48C2F90E074
:1001B00048175907C9F08C2F0E94A100801791079A
:1001C00049F0612F8C2F0E949400602F81E08C0FEA
:1001D0000E94940010935102009350028C2F90E0E3
:1001E00090934F0280934E02CF911F910F910895EB
:1001F0005298E9E6F0E0808182608083E89A789402
:100200005398559857985698549820983C9884E05D
:1002100080937C008FED80937A00789408951F92EC
:100220000F920FB60F9211242F933F934F935F932A
:100230006F937F938F939F93AF93BF93EF93FF93AE
:10024000809158028F5F80935802823019F4109287
:1002500058020DC0813049F40E9461068FE39FE18E
:100260000197F1F700C000000BC0811109C080E0C8
:100270000E9461068FE39FE10197F1F700C0000043
:10028000FF91EF91BF91AF919F918F917F916F916E
:100290005F914F913F912F910F900FBE0F901F9044
:1002A00018951F920F920FB60F9211242F933F9320
:1002B0004F935F936F937F938F939F93AF93BF936E
:1002C000EF93FF93609178008091790070E0782B34
:1002D000072E000C880B990B0E94AD0A2CE53FE815
:1002E00042E550E40E943B0B20E030E040E85AE356
:1002F0000E943B0B6093590270935A0280935B02F9
:1003000090935C0281E080935D02FF91EF91BF9139
:10031000AF919F918F917F916F915F914F913F919D
:100320002F910F900FBE0F901F901895EAE7F0E005
:1003300080818065808380915D02811105C080E4A9
:100340009FE10197F1F749C010925D0222ED33EE73
:1003500047E75CE36091590270915A0280915B0219
:1003600090915C020E940C0A20E030E048EC52E4DC
:100370000E940C0A9B01AC0160E070E080E89FE302
:100380000E949F0923E233EE4AE156EB0E943B0BA9
:100390009B01AC0166E672E280E897E30E949F0948
:1003A00020E030E040E05FE30E94A80B22E331E16F
:1003B00040E85BE30E949F0923E233EE4AE955EBF4
:1003C0000E940C0A0E94F80B60935402709355022D
:1003D000809356029093570208C060915402709126
:1003E000550280915602909157020E947E0ACB01DD
:1003F000089589B183FB882780F991E089270895C2
:1004000089B185FB882780F991E08927089589B112
:100410008095881F8827881F089589B186FB8827C3
:1004200080F991E08927089589B18295817091E0E2
:100430008927089583B1809581700895CF930E9494
:100440000002882331F00E9400028111FCCFC1E03C
:1004500001C0C0E00E940702882329F00E94070221
:100460008111FCCFC2608C2FCF9108950F931F9301
:10047000CF93DF930E945E0600916B0210916C0295
:100480000E941306C5E0D0E02FEF83ED90E32150EA
:1004900080409040E1F700C000008091620281300E
:1004A00009F4A2C060E08091690290916A020E9402
:1004B0000B0760E080916502909166020E940C0833
:1004C000219711F791C060E08091690290916A02D2
:1004D0000E940B0760E080916502909166020E9485
:1004E0000C0880916202813009F481C02FEF83ED06
:1004F00090E3215080409040E1F700C000000E944E
:100500001A02813009F07DC00E9431060E94140257
:10051000811177C02197B9F66AC08FE39CE90197F2
:10052000F1F700C000000115110509F447C0CAE049
:10053000D0E060E08091690290916A020E940B070E
:1005400060E080916502909166020E940C088091A3
:100550006202813099F19FEF23ED80E391502040BA
:100560008040E1F700C0000080916D02813011F001
:100570000E944506209789F021979FEF29E688E1A0
:10058000915020408040E1F700C000000E9414021A
:10059000813081F00E943B060DC09FEF29E688E183
:1005A000915020408040E1F700C000000E941402FA
:1005B000813039F50150110909F0BBCF0E9427069F
:1005C0000EC060E08091690290916A020E940B0760
:1005D00060E080916502909166020E940C080E9482
:1005E0001402813071F30DC0C5E0D0E06CCF0E94E1
:1005F0001D060E943B0680916202813009F08DCF7A
:1006000092CF81E0DF91CF911F910F910895CF9309
:10061000DF930E94510660E084E391E00E94B506FA
:1006200060E088E391E00E94B607C2E3D0E060E0BA
:1006300084E391E00E94B50660E0CE010E940C08C0
:100640002FEF83ED90E3215080409040E1F700C010
:100650000000219761F70E9400028823E1F3DF91F7
:10066000CF91089580915302811104C00E94F90135
:10067000882321F081E08093530201C080E0209123
:100680006502309166024091690250916A02465FAC
:100690005F4F4217530720F02530310528F00895A9
:1006A00081E08093640202C01092640225503109F7
:1006B000203F314020F081E0809363020895109242
:1006C0006302089514BC84E085BD81E086BDEEE63A
:1006D000F0E080818160808378940895249A0E945C
:1006E000F8000E94AF060E946706E0E0F1E080910A
:1006F0006F02818380916E02838780916D02858B6A
:1007000080916B02878F8091690281A70E94090600
:100710002FEF83ED90E3215080409040E1F700C03F
:100720000000C5E00E9496019093660280936502E6
:10073000C150C1F70E94620360E08CE391E00E9427
:10074000B50660E080E491E00E94B6072FEF81E1FA
:100750009AE7215080409040E1F700C000000F2E42
:10076000F6EBCF2EF1E0DF2EF02D0F2EF7EE6F2EF1
:10077000F02D0F2EF3E07F2EF02D862C972CEE24FB
:10078000E394F12C00E010E080916202811127C017
:1007900088E592E090933301809332018091640266
:1007A0008111F2CF60E084E491E00E94B50660E040
:1007B00088E391E00E94B6072FEF87EA91E6215087
:1007C00080409040E1F700C0000081E0809360022B
:1007D0000E9436028823C1F20E940703D5CF8130E0
:1007E00099F6109260020E94BB080E945E068EE598
:1007F00091E090933301809332016894552451F82D
:100800000F2EF6ECAF2EF1E0BF2EF02D19C060E0F8
:10081000899199910E94B50660E088E491E00E9478
:10082000B6072FEF85EA9EE0215080409040E1F727
:1008300000C00000CA15DB0551F75A94552011F08D
:10084000E601E5CF60E08CE491E00E94B5062FEF71
:1008500087EA91E6215080409040E1F700C0000017
:1008600080916202813009F019C18091610290E0AB
:10087000FC01EE0FFF1F880F991F880F991F880F2B
:10088000991FE80FF91FE050FF4FE081F0E0EE0FF5
:10089000FF1FE856FE4F60E0808191810E94B506FF
:1008A0008091610290E0FC01EE0FFF1F880F991FFD
:1008B000880F991F880F991FE80FF91FE050FF4F0D
:1008C000818160E090E00E940C088091610290E0DC
:1008D000FC01EE0FFF1F880F991F880F991F880FCB
:1008E000991FE80FF91FE050FF4FC1810E940D02D0
:1008F000882309F4B7C00E940D028111FCCFD0E01B
:100900000E94B7080E94000281112AC030C0C73E71
:1009100023E0D20750F58091610290E0FC01EE0FD8
:10092000FF1F880F991F880F991F880F991FE80FC5
:10093000F91FE050FF4F80818250833058F021969C
:100940008FEF91EE24E0815090402040E1F700C00D
:10095000000002C0CE2DDF2D60E0CE010E940C0809
:100960000E9400028111D3CF02C0C82DD92D0E9450
:100970000702811129C02CC0209709F4A7C08091DB
:10098000610290E0FC01EE0FFF1F880F991F880F96
:10099000991F880F991FE80FF91FE050FF4F8081C2
:1009A0008250833058F021979FEF21EE84E09150E0
:1009B00020408040E1F700C0000002C0C02FD12FCE
:1009C00060E0CE010E940C080E9407028111D4CF82
:1009D0000E940D02882329F00E940D028111FCCF94
:1009E00082C0C73E83E0D80708F086C087C00E9457
:1009F000BB088091610290E0FC01EE0FFF1F9C019B
:100A0000220F331F220F331F220F331FE20FF31F5A
:100A1000E050FF4FC18320812851223090F4FC0127
:100A2000EE0FFF1F880F991F880F991F880F991FBE
:100A3000E80FF91FE050FF4FBE0182810E94B8000D
:100A400011C0FC01EE0FFF1F880F991F880F991F1F
:100A5000880F991FE80FF91FE050FF4F6C2F82811C
:100A60000E949400C0916102D0E00E941E029E018B
:100A7000220F331FCC0FDD1FCC0FDD1FCC0FDD1F6E
:100A8000C20FD31FC050DF4FC80FD11D8E8180937E
:100A9000610280916202813009F4E7CEE0E0F1E08A
:100AA000818180936F02838580936E028589809314
:100AB0006D02878D90E090936C0280936B0281A50C
:100AC00090E090936A02809369025ECE0E940D02CC
:100AD000811182CF13C060E0862D972D0E940C08F3
:100AE000C62DD72D84CFC73E23E0D207A0F760E004
:100AF000CE010E940C087BCFC82DD92D60E0CE011D
:100B00000E940C08FDCE1F920F920FB60F92112477
:100B10002F933F934F935F936F937F938F939F9305
:100B2000AF93BF93EF93FF9380915E0290915F022A
:100B3000019690935F0280935E026EE170E00E94E6
:100B40006C0D892B31F40E9496019093660280937C
:100B500065020E94320380915302882381F081E074
:100B60008093520261E080E591E00E94B50661E069
:100B700084E591E00E94B6070E9451061BC0809157
:100B800064028823A9F080916202811111C060E0A3
:100B900088E591E00E94B50660E080916502909141
:100BA00066020E940C080E945E061092640202C057
:100BB000109252020E946406809362020E945606BE
:100BC0000E94BE0820915E0230915F028091320146
:100BD000909133012817390741F495B180E18927B5
:100BE00085B910925F0210925E02A89A81E086BDDC
:100BF000FF91EF91BF91AF919F918F917F916F91F5
:100C00005F914F913F912F910F900FBE0F901F90CA
:100C100018950E944F096091670280E00E945B096D
:100C20000E949C09089580915202811105C0809113
:100C3000670281608093670208958091520281115A
:100C400005C0809167028260809367020895809159
:100C50005202811105C0809167028460809367020F
:100C6000089580915202811105C0809167028860C9
:100C700080936702089580915202811105C080918E
:100C800067028061809367020895809167028F7E7A
:100C90008093670208958091670280628093670263
:100CA0000895109267020E944B06089560916702B2
:100CB00080E00E945B090E949C09089510926702DF
:100CC000089580936802089580916802089580E0F5
:100CD0000E949B0080936F0281E00E949B008093A2
:100CE0006E0282E00E949B0080936D0283E00E946E
:100CF000A10090936C0280936B028AE00E94A10095
:100D000090936A02809369020895282F8470982F27
:100D10009295907F822F8870880F892B622F637045
:100D2000862B922F9071692F70E075956795862BB1
:100D3000922F9072492F50E05595479555954795BC
:100D400055954795482B822F8074880F842B2078E7
:100D500030E03595279535952795822B08950E948B
:100D60004F09219A229A239A0895DF92EF92FF92D7
:100D70000F931F93CF93DF93EC01D62E80915202F5
:100D8000811122C0E881F0E0E253FE4F80810E9491
:100D9000850606E712E0F8018083E981F0E0E2537E
:100DA000FE4F80810E948506F80181837E01F2E07A
:100DB000EF0EF11CEA81F0E0E253FE4F80810E94C9
:100DC0008506F8018283E701DD20E9F0E881F0E0A3
:100DD000E253FE4F80810E94850606E712E0F8018B
:100DE0008083E981F0E0E253FE4F80810E94850616
:100DF000F8018183EA81F0E0E253FE4F80810E9496
:100E00008506F8018283DF91CF911F910F91FF90AA
:100E1000EF90DF900895FF920F931F93CF93DF938E
:100E200000D01F92CDB7DEB78C01F62E8091520212
:100E3000811149C0083E23E0120710F007EE13E0CD
:100E400098013695279536952795ABE7B4E10E9432
:100E5000800D9695879520E3280F298344E6489FC7
:100E60009001499F300D1124C801821B930B9C01F6
:100E7000ADECBCEC0E94800D969587959695879574
:100E800096958795805D8A8398010E94800D96953E
:100E9000879596958795969587959C01220F331F88
:100EA000880F991F880F991F880F991F820F931F12
:100EB0009801281B390BC901805D8B836F2DCE01F2
:100EC00001960E94B506FF2009F447C0083E33E0B2
:100ED000130710F007EE13E0980136952795369525
:100EE0002795ABE7B4E10E94800D9695879520E3A6
:100EF000280F298344E6489F9001499F300D112413
:100F0000C801821B930B9C01ADECBCEC0E94800DD0
:100F1000969587959695879596958795805D8A8312
:100F200098010E94800D9695879596958795969540
:100F300087959C01220F331F880F991F880F991FD7
:100F4000880F991F820F931F081B190B005D0B83DD
:100F50006F2DCE0101960E94B5060F900F900F9055
:100F6000DF91CF911F910F91FF900895DF92EF9243
:100F7000FF920F931F93CF93DF93EC01D62E8091B6
:100F80005202811122C0E881F0E0E253FE4F8081DD
:100F90000E94850606E712E0F8018383E981F0E00C
:100FA000E253FE4F80810E948506F80184837E0112
:100FB000F2E0EF0EF11CEA81F0E0E253FE4F808197
:100FC0000E948506F8018583E701DD20E9F0E881CC
:100FD000F0E0E253FE4F80810E94850606E712E0B2
:100FE000F8018383E981F0E0E253FE4F80810E94A3
:100FF0008506F8018483EA81F0E0E253FE4F8081A8
:101000000E948506F8018583DF91CF911F910F9192
:10101000FF90EF90DF900895FF920F931F93CF936F
:10102000DF9300D01F92CDB7DEB78C01F62E8091F2
:101030005202811149C0083E23E0120710F007EE6A
:1010400013E098013695279536952795ABE7B4E1DF
:101050000E94800D9695879520E3280F298344E60A
:10106000489F9001499F300D1124C801821B930BAA
:101070009C01ADECBCEC0E94800D969587959695F1
:10108000879596958795805D8A8398010E94800D4B
:101090009695879596958795969587959C01220FAD
:1010A000331F880F991F880F991F880F991F820F70
:1010B000931F9801281B390BC901805D8B836F2D0D
:1010C000CE0101960E94B607FF2009F447C0083EF2
:1010D00033E0130710F007EE13E0980136952795DB
:1010E00036952795ABE7B4E10E94800D96958795DC
:1010F00020E3280F298344E6489F9001499F300D43
:101100001124C801821B930B9C01ADECBCEC0E9426
:10111000800D969587959695879596958795805D90
:101120008A8398010E94800D96958795969587955C
:10113000969587959C01220F331F880F991F880F62
:10114000991F880F991F820F931F081B190B005DB1
:101150000B836F2DCE0101960E94B6070F900F9062
:101160000F90DF91CF911F910F91FF90089581E033
:1011700080937C02089510927C020895CF93DF93B0
:1011800000D000D000D0CDB7DEB780917C02813096
:1011900051F580915202811126C080917402909184
:1011A00075020196909375028093740284369105BE
:1011B00039F41092730210927202109271021EC0E2
:1011C000883C9105D9F4E6E7F2E0838180937302CD
:1011D00084818093720285818093710210927502DE
:1011E000109274020BC0E6E7F2E0838180937302F1
:1011F0008481809372028581809371028091730251
:1012000090E0982F8827E6E7F2E02081822B9A83EE
:1012100089838091720290E0982F88272181822B08
:101220009C838B838091710290E0982F8827228184
:10123000822B9E838D83E0917002F0E0EE0FFF1F02
:10124000EC0FFD1F6181728180E00E9473090E9492
:10125000990980917002811104C0299A2A982B98CB
:101260000BC0813021F429982A9A2B9805C082302E
:1012700019F429982A982B9A809170028F5F8330F5
:1012800019F08093700202C01092700226960FB679
:10129000F894DEBF0FBECDBFDF91CF910895389A8D
:1012A0003A9A399A259A3B9A3D9A429841982D98B4
:1012B000439A459A089520E030E070E081110DC016
:1012C000AB01022E02C0559547950A94E2F740FD06
:1012D000409A40FF4098429A42982F5F3F4F2830F3
:1012E000310561F70895CF93DF93EB0120E030E003
:1012F000A1E0B0E0E1E060E0811113C098B1AD0180
:10130000022E02C0440F551F0A94E2F74C235D23BE
:101310007E2F452B09F4762F9E7F972B98B9429A02
:1013200042982F5F3F4F2031310531F7DF91CF9148
:101330000895419A419808952D9A2D9808955058EE
:10134000BB27AA270E94B7090C94010B0E94F30A3D
:1013500038F00E94FA0A20F039F49F3F19F426F47D
:101360000C94F00A0EF4E095E7FB0C94EA0AE92FDE
:101370000E94120B58F3BA17620773078407950788
:1013800020F079F4A6F50C94340B0EF4E0950B2EB6
:10139000BA2FA02D0B01B90190010C01CA01A001C7
:1013A0001124FF27591B99F0593F50F4503E68F122
:1013B0001A16F040A22F232F342F4427585FF3CF63
:1013C000469537952795A795F0405395C9F77EF434
:1013D0001F16BA0B620B730B840BBAF09150A1F07D
:1013E000FF0FBB1F661F771F881FC2F70EC0BA0F03
:1013F000621F731F841F48F4879577956795B7958B
:10140000F7959E3F08F0B0CF9395880F08F0992785
:10141000EE0F9795879508950E94200A0C94010B72
:101420000E94FA0A58F00E94F30A40F029F45F3F44
:1014300029F00C94EA0A51110C94350B0C94F00A23
:101440000E94120B68F39923B1F3552391F3951B76
:10145000550BBB27AA2762177307840738F09F5FD5
:101460005F4F220F331F441FAA1FA9F335D00E2E42
:101470003AF0E0E832D091505040E695001CCAF7AF
:101480002BD0FE2F29D0660F771F881FBB1F261772
:1014900037074807AB07B0E809F0BB0B802DBF0149
:1014A000FF2793585F4F3AF09E3F510578F00C9418
:1014B000EA0A0C94350B5F3FE4F3983ED4F386952B
:1014C00077956795B795F7959F5FC9F7880F911D39
:1014D0009695879597F90895E1E0660F771F881F25
:1014E000BB1F621773078407BA0720F0621B730BD8
:1014F000840BBA0BEE1F88F7E09508950E941A0B33
:1015000088F09F5798F0B92F9927B751B0F0E1F0C4
:10151000660F771F881F991F1AF0BA95C9F714C074
:10152000B13091F00E94340BB1E008950C94340B6B
:10153000672F782F8827B85F39F0B93FCCF38695AD
:1015400077956795B395D9F73EF49095809570950A
:1015500061957F4F8F4F9F4F0895E89409C097FB87
:101560003EF490958095709561957F4F8F4F9F4F7A
:101570009923A9F0F92F96E9BB279395F6958795BE
:1015800077956795B795F111F8CFFAF4BB0F11F481
:1015900060FF1BC06F5F7F4F8F4F9F4F16C0882328
:1015A00011F096E911C0772321F09EE8872F762F5E
:1015B00005C0662371F096E8862F70E060E02AF09F
:1015C0009A95660F771F881FDAF7880F969587958B
:1015D00097F9089597F99F6780E870E060E00895B3
:1015E0009FEF80EC089500240A941616170618063B
:1015F0000906089500240A94121613061406050617
:101600000895092E0394000C11F4882352F0BB0FA7
:1016100040F4BF2B11F460FF04C06F5F7F4F8F4F0A
:101620009F4F089557FD9058440F551F59F05F3F45
:1016300071F04795880F97FB991F61F09F3F79F0F4
:1016400087950895121613061406551FF2CF469576
:10165000F1DF08C0161617061806991FF1CF8695F8
:101660007105610508940895E894BB2766277727DC
:10167000CB0197F908950E944E0B0C94010B0E9428
:10168000F30A38F00E94FA0A20F0952311F00C9426
:10169000EA0A0C94F00A11240C94350B0E94120BE8
:1016A00070F3959FC1F3950F50E0551F629FF001B5
:1016B000729FBB27F00DB11D639FAA27F00DB11DCE
:1016C000AA1F649F6627B00DA11D661F829F222757
:1016D000B00DA11D621F739FB00DA11D621F839FDE
:1016E000A00D611D221F749F3327A00D611D231FB4
:1016F000849F600D211D822F762F6A2F11249F5702
:1017000050409AF0F1F088234AF0EE0FFF1FBB1F04
:10171000661F771F881F91505040A9F79E3F5105C3
:1017200080F00C94EA0A0C94350B5F3FE4F3983E8A
:10173000D4F3869577956795B795F795E7959F5F6D
:10174000C1F7FE2B880F911D9695879597F90895FF
:10175000FA01EE0FFF1F309621053105A1F1611549
:10176000710561F48038BFE39B0749F168949038B4
:10177000810561F08038BFEF9B0741F099234AF55E
:10178000FF3FE1053105210519F1E8940894E7953B
:10179000D901AA2329F4AB2FBE2FF85FD0F310C0D4
:1017A000FF5F70F4A695E0F7F73950F019F0FF3AB3
:1017B00038F49F779F930DD00F9007FC90580895B1
:1017C00046F00C94F00A60E070E080E89FE3089532
:1017D0004FE79F775F934F933F932F930E94F00CB7
:1017E0002F913F914F915F910E943B0B0C94240CE1
:1017F0000E941A0BE8F09E37E8F09639B8F49E384C
:1018000048F4672F782F8827985FF9CF86957795CA
:10181000679593959539D0F3B62FB1706B0F711D05
:10182000811D20F487957795679593950C94560CB8
:101830000C94710C0C94350B29F416F00C94EA0AF4
:101840000C94340B0C94F00A0E941A0BA8F39638EF
:10185000A0F707F80F92E8942BE33AEA48EB5FE72A
:101860000E94510B0F920F920F924DB75EB70F92DD
:101870000E94380DE8E6F0E00E947F0C4F915F91E6
:10188000EF91FF91E595EE1FFF1F49F0FE57E068CD
:101890004427EE0F441FFA95E1F74195550B0E943E
:1018A000B20C0F9007FE0C94A60C0895882371F4D7
:1018B000772321F09850872B762F07C0662311F4E9
:1018C00099270DC09051862B70E060E02AF09A9520
:1018D000660F771F881FDAF7880F9695879597F917
:1018E00008959F3F31F0915020F487957795679543
:1018F000B795880F911D9695879597F90895DF9371
:10190000CF931F930F93FF92EF92DF927B018C0195
:10191000689406C0DA2EEF010E944E0BFE01E89497
:10192000A5912591359145915591A6F3EF010E941E
:10193000B709FE019701A801DA9469F7DF90EF90EB
:10194000FF900F911F91CF91DF9108959B01AC0102
:1019500060E070E080E89FE30C940C0A0C94EA0AC3
:101960000C94710C0E941A0BD8F39923C9F3940FAD
:10197000511DA3F39150504094F059F0882332F058
:10198000660F771F881F91505040C1F79E3F510549
:101990002CF7880F911D9695879597F908955F3FCD
:1019A000ACF0983E9CF0BB27869577956795B795E8
:1019B00008F4B1609395C1F7BB0F58F711F460FFBD
:1019C000E8CF6F5F7F4F8F4F9F4FE3CF0C94350B66
:1019D00016F00C94710C0C94F00A68940C94EA0ABA
:1019E0000E941A0BA8F39923C1F3AEF3DF93CF93B0
:1019F0001F930F93FF92C92FDD2788232AF0219789
:101A0000660F771F881FDAF720E030E040E85FEBD1
:101A10009FE3883920F0803E38F021968F770E942E
:101A2000A009E0E9F0E004C00E94A009EDEBF0E0BD
:101A30000E947F0C8B01BE01EC01FB2E6F577109D8
:101A40007595771F880B990B0E94AF0A28E132E742
:101A500041E35FE30E944E0BAF2D9801AE01FF9072
:101A60000F911F91CF91DF910E94B7090C94010B48
:101A7000FA01DC01AA0FBB1F9B01AC01BF5728F480
:101A8000222733274427507820C0B75190F4AB2F3A
:101A90000024469537952795011CA395D2F3002085
:101AA00071F0220F331F441FB395DAF30ED00C945C
:101AB0009F0961307105A0E88A07B94630F49B019F
:101AC000AC016627772788279078309621F020830D
:101AD000318342835383089597FB072E16F40094B5
:101AE00007D077FD09D00E948F0D07FC05D03EF48A
:101AF000909581959F4F0895709561957F4F0895BA
:101B0000A29FB001B39FC001A39F700D811D11243E
:101B1000911DB29F700D811D1124911D0895AA1B66
:101B2000BB1B51E107C0AA1FBB1FA617B70710F0C8
:101B3000A61BB70B881F991F5A95A9F780959095FA
:0A1B4000BC01CD010895F894FFCF19
:101B4A000200000000000001040003000100000080
:101B5A000102000104000200000002030102180051
:101B6A00030000000304020319000A000000040035
:101B7A000304580245352000202020005359530001
:101B8A004F4E200052554E004F502000434F4E00FA
:101B9A004741530045525200453120005031200040
:101BAA0050322000503320004D4F4400453220006F
:101BBA0045332000453420004E4F52004F4E6600F8
:101BCA0046472000672020002020430020434F0082
:101BDA005034200050352000540150015C0160014E
:101BEA00640140013801680158016C0170017401F7
:101BFA003C01780148014C017C01800184013801D3
:101C0A0088018C014C014401900194013401FC606B
:101C1A00DAF266B6BEE0FEF6EE3E9C7A9E8E0000D2
:101C2A0000000000000000000000000000000000AA
:101C3A004400000000409CF0000008020000FC6024
:101C4A00DAF266B6BEE0FEF600000000000000EE22
:101C5A003E9C7A9E8EBC6E6070001C00ECFCCEE648
:101C6A008CB61E7C00000076009C00F0001004EE8A
:101C7A003E1A7ADE8EBC2E2070006000EC3ACEE668
:0E1C8A008CB61E3800000000000000000000B4
:00000001FF
