:100000000C9434000C9446000C9446000C9446006A
:100010000C9446000C9446000C9446000C94460048
:100020000C9446000C9446000C9446000C94460038
:100030000C9446000C9446000C9446000C94460028
:100040000C9446000C9446000C9446000C94460018
:100050000C9446000C9452000C9446000C944600FC
:100060000C9446000C94460011241FBECFEFD8E03C
:10007000DEBFCDBF21E0A0E0B1E001C01D92A53000
:10008000B207E1F70E9490000C94D0000C9400009D
:1000900017B8249A84E080937C008FED80937A00D7
:1000A000789408951F920F920FB60F9211242F93F8
:1000B0003F934F935F936F937F938F939F93AF93F0
:1000C000BF93A091780080917900B0E0B82B24EE26
:1000D0003CE00E94BA00DC01CB01072E7AE0B69525
:1000E000A795979587957A95D1F7702D8093010103
:1000F00090930201A0930301B093040181E08093E7
:100100000001BF91AF919F918F917F916F915F910E
:100110004F913F912F910F900FBE0F901F90189508
:100120000E944800EAE7F0E080910001882329F06E
:1001300080818065808310920001809101019091FF
:100140000201A0910301B0910401883B9B40A105ED
:10015000B10570F02C9A8091010190910201A0915B
:100160000301B0910401883B9B40A105B105E0F675
:100170002C98DACF0E94C100B7FF0895821B930B21
:100180000895A29FB001B39FC001A39F700D811D70
:100190001124911DB29F700D811D1124911D089590
:0401A000F894FFCF01
:00000001FF
